{
  "contractName": "Product",
  "abi": [
    {
      "inputs": [],
      "payable": false,
      "stateMutability": "nonpayable",
      "type": "constructor"
    },
    {
      "anonymous": false,
      "inputs": [
        {
          "indexed": false,
          "internalType": "address",
          "name": "buyer",
          "type": "address"
        },
        {
          "indexed": false,
          "internalType": "string",
          "name": "product",
          "type": "string"
        },
        {
          "indexed": false,
          "internalType": "uint256",
          "name": "quantity",
          "type": "uint256"
        },
        {
          "indexed": false,
          "internalType": "uint256",
          "name": "time",
          "type": "uint256"
        },
        {
          "indexed": false,
          "internalType": "uint256",
          "name": "price",
          "type": "uint256"
        },
        {
          "indexed": false,
          "internalType": "uint256",
          "name": "time1",
          "type": "uint256"
        },
        {
          "indexed": false,
          "internalType": "uint256",
          "name": "time2",
          "type": "uint256"
        },
        {
          "indexed": false,
          "internalType": "uint256",
          "name": "time3",
          "type": "uint256"
        }
      ],
      "name": "ProductCreated",
      "type": "event"
    },
    {
      "constant": true,
      "inputs": [],
      "name": "bill",
      "outputs": [
        {
          "internalType": "uint256",
          "name": "",
          "type": "uint256"
        }
      ],
      "payable": false,
      "stateMutability": "view",
      "type": "function"
    },
    {
      "constant": true,
      "inputs": [],
      "name": "buyer",
      "outputs": [
        {
          "internalType": "address",
          "name": "",
          "type": "address"
        }
      ],
      "payable": false,
      "stateMutability": "view",
      "type": "function"
    },
    {
      "constant": true,
      "inputs": [],
      "name": "delay",
      "outputs": [
        {
          "internalType": "uint256",
          "name": "",
          "type": "uint256"
        }
      ],
      "payable": false,
      "stateMutability": "view",
      "type": "function"
    },
    {
      "constant": true,
      "inputs": [],
      "name": "flag",
      "outputs": [
        {
          "internalType": "uint256",
          "name": "",
          "type": "uint256"
        }
      ],
      "payable": false,
      "stateMutability": "view",
      "type": "function"
    },
    {
      "constant": true,
      "inputs": [],
      "name": "hour",
      "outputs": [
        {
          "internalType": "uint256",
          "name": "",
          "type": "uint256"
        }
      ],
      "payable": false,
      "stateMutability": "view",
      "type": "function"
    },
    {
      "constant": true,
      "inputs": [],
      "name": "k",
      "outputs": [
        {
          "internalType": "uint256",
          "name": "",
          "type": "uint256"
        }
      ],
      "payable": false,
      "stateMutability": "view",
      "type": "function"
    },
    {
      "constant": true,
      "inputs": [],
      "name": "lat1",
      "outputs": [
        {
          "internalType": "string",
          "name": "",
          "type": "string"
        }
      ],
      "payable": false,
      "stateMutability": "view",
      "type": "function"
    },
    {
      "constant": true,
      "inputs": [],
      "name": "lat2",
      "outputs": [
        {
          "internalType": "string",
          "name": "",
          "type": "string"
        }
      ],
      "payable": false,
      "stateMutability": "view",
      "type": "function"
    },
    {
      "constant": true,
      "inputs": [],
      "name": "lat3",
      "outputs": [
        {
          "internalType": "string",
          "name": "",
          "type": "string"
        }
      ],
      "payable": false,
      "stateMutability": "view",
      "type": "function"
    },
    {
      "constant": true,
      "inputs": [],
      "name": "long1",
      "outputs": [
        {
          "internalType": "string",
          "name": "",
          "type": "string"
        }
      ],
      "payable": false,
      "stateMutability": "view",
      "type": "function"
    },
    {
      "constant": true,
      "inputs": [],
      "name": "long2",
      "outputs": [
        {
          "internalType": "string",
          "name": "",
          "type": "string"
        }
      ],
      "payable": false,
      "stateMutability": "view",
      "type": "function"
    },
    {
      "constant": true,
      "inputs": [],
      "name": "long3",
      "outputs": [
        {
          "internalType": "string",
          "name": "",
          "type": "string"
        }
      ],
      "payable": false,
      "stateMutability": "view",
      "type": "function"
    },
    {
      "constant": true,
      "inputs": [],
      "name": "message",
      "outputs": [
        {
          "internalType": "string",
          "name": "",
          "type": "string"
        }
      ],
      "payable": false,
      "stateMutability": "view",
      "type": "function"
    },
    {
      "constant": true,
      "inputs": [],
      "name": "min",
      "outputs": [
        {
          "internalType": "uint256",
          "name": "",
          "type": "uint256"
        }
      ],
      "payable": false,
      "stateMutability": "view",
      "type": "function"
    },
    {
      "constant": true,
      "inputs": [],
      "name": "price",
      "outputs": [
        {
          "internalType": "uint256",
          "name": "",
          "type": "uint256"
        }
      ],
      "payable": false,
      "stateMutability": "view",
      "type": "function"
    },
    {
      "constant": true,
      "inputs": [],
      "name": "product",
      "outputs": [
        {
          "internalType": "string",
          "name": "",
          "type": "string"
        }
      ],
      "payable": false,
      "stateMutability": "view",
      "type": "function"
    },
    {
      "constant": true,
      "inputs": [],
      "name": "quantity",
      "outputs": [
        {
          "internalType": "uint256",
          "name": "",
          "type": "uint256"
        }
      ],
      "payable": false,
      "stateMutability": "view",
      "type": "function"
    },
    {
      "constant": true,
      "inputs": [],
      "name": "state",
      "outputs": [
        {
          "internalType": "enum Product.ProductState",
          "name": "",
          "type": "uint8"
        }
      ],
      "payable": false,
      "stateMutability": "view",
      "type": "function"
    },
    {
      "constant": true,
      "inputs": [],
      "name": "supplier",
      "outputs": [
        {
          "internalType": "address",
          "name": "",
          "type": "address"
        }
      ],
      "payable": false,
      "stateMutability": "view",
      "type": "function"
    },
    {
      "constant": true,
      "inputs": [],
      "name": "time",
      "outputs": [
        {
          "internalType": "uint256",
          "name": "",
          "type": "uint256"
        }
      ],
      "payable": false,
      "stateMutability": "view",
      "type": "function"
    },
    {
      "constant": true,
      "inputs": [],
      "name": "time1",
      "outputs": [
        {
          "internalType": "uint256",
          "name": "",
          "type": "uint256"
        }
      ],
      "payable": false,
      "stateMutability": "view",
      "type": "function"
    },
    {
      "constant": true,
      "inputs": [],
      "name": "time2",
      "outputs": [
        {
          "internalType": "uint256",
          "name": "",
          "type": "uint256"
        }
      ],
      "payable": false,
      "stateMutability": "view",
      "type": "function"
    },
    {
      "constant": true,
      "inputs": [],
      "name": "time3",
      "outputs": [
        {
          "internalType": "uint256",
          "name": "",
          "type": "uint256"
        }
      ],
      "payable": false,
      "stateMutability": "view",
      "type": "function"
    },
    {
      "constant": false,
      "inputs": [
        {
          "internalType": "string",
          "name": "b",
          "type": "string"
        },
        {
          "internalType": "uint256",
          "name": "c",
          "type": "uint256"
        },
        {
          "internalType": "uint256",
          "name": "d",
          "type": "uint256"
        },
        {
          "internalType": "uint256",
          "name": "e",
          "type": "uint256"
        },
        {
          "internalType": "uint256",
          "name": "f",
          "type": "uint256"
        },
        {
          "internalType": "uint256",
          "name": "g",
          "type": "uint256"
        },
        {
          "internalType": "uint256",
          "name": "h",
          "type": "uint256"
        },
        {
          "internalType": "uint256",
          "name": "i",
          "type": "uint256"
        },
        {
          "internalType": "uint256",
          "name": "j",
          "type": "uint256"
        }
      ],
      "name": "createProduct",
      "outputs": [],
      "payable": false,
      "stateMutability": "nonpayable",
      "type": "function"
    },
    {
      "constant": false,
      "inputs": [],
      "name": "askPermission",
      "outputs": [],
      "payable": false,
      "stateMutability": "nonpayable",
      "type": "function"
    },
    {
      "constant": false,
      "inputs": [],
      "name": "grantPermission",
      "outputs": [],
      "payable": false,
      "stateMutability": "nonpayable",
      "type": "function"
    },
    {
      "constant": false,
      "inputs": [
        {
          "internalType": "uint256",
          "name": "t1",
          "type": "uint256"
        }
      ],
      "name": "IoT_1",
      "outputs": [],
      "payable": false,
      "stateMutability": "nonpayable",
      "type": "function"
    },
    {
      "constant": false,
      "inputs": [
        {
          "internalType": "string",
          "name": "a",
          "type": "string"
        },
        {
          "internalType": "string",
          "name": "b",
          "type": "string"
        }
      ],
      "name": "loc_1",
      "outputs": [],
      "payable": false,
      "stateMutability": "nonpayable",
      "type": "function"
    },
    {
      "constant": false,
      "inputs": [
        {
          "internalType": "uint256",
          "name": "t2",
          "type": "uint256"
        }
      ],
      "name": "IoT_2",
      "outputs": [],
      "payable": false,
      "stateMutability": "nonpayable",
      "type": "function"
    },
    {
      "constant": false,
      "inputs": [
        {
          "internalType": "string",
          "name": "a",
          "type": "string"
        },
        {
          "internalType": "string",
          "name": "b",
          "type": "string"
        }
      ],
      "name": "loc_2",
      "outputs": [],
      "payable": false,
      "stateMutability": "nonpayable",
      "type": "function"
    },
    {
      "constant": false,
      "inputs": [
        {
          "internalType": "uint256",
          "name": "t3",
          "type": "uint256"
        }
      ],
      "name": "IoT_3",
      "outputs": [],
      "payable": false,
      "stateMutability": "nonpayable",
      "type": "function"
    },
    {
      "constant": false,
      "inputs": [
        {
          "internalType": "string",
          "name": "a",
          "type": "string"
        },
        {
          "internalType": "string",
          "name": "b",
          "type": "string"
        }
      ],
      "name": "loc_3",
      "outputs": [],
      "payable": false,
      "stateMutability": "nonpayable",
      "type": "function"
    },
    {
      "constant": false,
      "inputs": [],
      "name": "acknowledgeShipment",
      "outputs": [],
      "payable": false,
      "stateMutability": "nonpayable",
      "type": "function"
    },
    {
      "constant": false,
      "inputs": [],
      "name": "submitBill",
      "outputs": [],
      "payable": false,
      "stateMutability": "nonpayable",
      "type": "function"
    },
    {
      "constant": false,
      "inputs": [],
      "name": "makePayment",
      "outputs": [],
      "payable": true,
      "stateMutability": "payable",
      "type": "function"
    },
    {
      "constant": false,
      "inputs": [],
      "name": "acknowledgePayment",
      "outputs": [],
      "payable": false,
      "stateMutability": "nonpayable",
      "type": "function"
    }
  ],
  "bytecode": "0x608060405260405180602001604052806000815250600290805190602001906200002b929190620002d6565b506000600360006101000a81548160ff021916908360098111156200004c57fe5b02179055506040518060400160405280601081526020017f436f6e7472616374205374617274656400000000000000000000000000000000815250600c90805190602001906200009e929190620002d6565b506000600e556000600f556040518060400160405280600181526020017f300000000000000000000000000000000000000000000000000000000000000081525060109080519060200190620000f6929190620002d6565b506040518060400160405280600181526020017f30000000000000000000000000000000000000000000000000000000000000008152506011908051906020019062000144929190620002d6565b506040518060400160405280600181526020017f30000000000000000000000000000000000000000000000000000000000000008152506012908051906020019062000192929190620002d6565b506040518060400160405280600181526020017f300000000000000000000000000000000000000000000000000000000000000081525060139080519060200190620001e0929190620002d6565b506040518060400160405280600181526020017f3000000000000000000000000000000000000000000000000000000000000000815250601490805190602001906200022e929190620002d6565b506040518060400160405280600181526020017f3000000000000000000000000000000000000000000000000000000000000000815250601590805190602001906200027c929190620002d6565b5060006016553480156200028f57600080fd5b50336000806101000a81548173ffffffffffffffffffffffffffffffffffffffff021916908373ffffffffffffffffffffffffffffffffffffffff16021790555062000385565b828054600181600116156101000203166002900490600052602060002090601f016020900481019282601f106200031957805160ff19168380011785556200034a565b828001600101855582156200034a579182015b82811115620003495782518255916020019190600101906200032c565b5b5090506200035991906200035d565b5090565b6200038291905b808211156200037e57600081600090555060010162000364565b5090565b90565b6126d180620003956000396000f3fe60806040526004361061020f5760003560e01c80637b3962a711610118578063bf9ce952116100a0578063e21f37ce1161006f578063e21f37ce14610e6a578063e268be9714610efa578063eaa086b714610f11578063f889794514610fa1578063f9eebdfe14610fcc5761020f565b8063bf9ce95214610d6c578063c19d93fb14610dfc578063d6f8ecae14610e35578063d8d7970014610e605761020f565b80639b377713116100e75780639b37771314610bcf578063a035b1fe14610ce8578063ab4531b314610d13578063b4f40c6114610d2a578063b8bc835c14610d555761020f565b80637b3962a714610a49578063890eba6814610a845780638b67b21d14610aaf5780639493683914610b3f5761020f565b80634a3bd6721161019b5780636a42b8f81161016a5780636a42b8f8146108e557806370adfcd9146109105780637150d8ae1461094b578063787c5a48146109a25780637913dffe14610a325761020f565b80634a3bd672146105c157806351e3beb0146105ec57806355a5a2941461074b5780636090ea00146107865761020f565b806323e5f1c5116101e257806323e5f1c51461038a57806333cb55b2146103b557806336da446814610514578063371e677a1461056b5780633c1b2fd2146105965761020f565b806316ada5471461021457806317e776dd1461023f57806317fc45e2146102cf57806319e6166c146102fa575b600080fd5b34801561022057600080fd5b50610229610fe3565b6040518082815260200191505060405180910390f35b34801561024b57600080fd5b50610254610fe9565b6040518080602001828103825283818151815260200191508051906020019080838360005b83811015610294578082015181840152602081019050610279565b50505050905090810190601f1680156102c15780820380516001836020036101000a031916815260200191505b509250505060405180910390f35b3480156102db57600080fd5b506102e4611087565b6040518082815260200191505060405180910390f35b34801561030657600080fd5b5061030f61108d565b6040518080602001828103825283818151815260200191508051906020019080838360005b8381101561034f578082015181840152602081019050610334565b50505050905090810190601f16801561037c5780820380516001836020036101000a031916815260200191505b509250505060405180910390f35b34801561039657600080fd5b5061039f61112b565b6040518082815260200191505060405180910390f35b3480156103c157600080fd5b50610512600480360360408110156103d857600080fd5b81019080803590602001906401000000008111156103f557600080fd5b82018360208201111561040757600080fd5b8035906020019184600183028401116401000000008311171561042957600080fd5b91908080601f016020809104026020016040519081016040528093929190818152602001838380828437600081840152601f19601f8201169050808301925050505050505091929192908035906020019064010000000081111561048c57600080fd5b82018360208201111561049e57600080fd5b803590602001918460018302840111640100000000831117156104c057600080fd5b91908080601f016020809104026020016040519081016040528093929190818152602001838380828437600081840152601f19601f820116905080830192505050505050509192919290505050611131565b005b34801561052057600080fd5b506105296111c4565b604051808273ffffffffffffffffffffffffffffffffffffffff1673ffffffffffffffffffffffffffffffffffffffff16815260200191505060405180910390f35b34801561057757600080fd5b506105806111e9565b6040518082815260200191505060405180910390f35b3480156105a257600080fd5b506105ab6111ef565b6040518082815260200191505060405180910390f35b3480156105cd57600080fd5b506105d66111f5565b6040518082815260200191505060405180910390f35b3480156105f857600080fd5b506107496004803603604081101561060f57600080fd5b810190808035906020019064010000000081111561062c57600080fd5b82018360208201111561063e57600080fd5b8035906020019184600183028401116401000000008311171561066057600080fd5b91908080601f016020809104026020016040519081016040528093929190818152602001838380828437600081840152601f19601f820116905080830192505050505050509192919290803590602001906401000000008111156106c357600080fd5b8201836020820111156106d557600080fd5b803590602001918460018302840111640100000000831117156106f757600080fd5b91908080601f016020809104026020016040519081016040528093929190818152602001838380828437600081840152601f19601f8201169050808301925050505050505091929192905050506111fb565b005b34801561075757600080fd5b506107846004803603602081101561076e57600080fd5b810190808035906020019092919050505061128e565b005b34801561079257600080fd5b506108e3600480360360408110156107a957600080fd5b81019080803590602001906401000000008111156107c657600080fd5b8201836020820111156107d857600080fd5b803590602001918460018302840111640100000000831117156107fa57600080fd5b91908080601f016020809104026020016040519081016040528093929190818152602001838380828437600081840152601f19601f8201169050808301925050505050505091929192908035906020019064010000000081111561085d57600080fd5b82018360208201111561086f57600080fd5b8035906020019184600183028401116401000000008311171561089157600080fd5b91908080601f016020809104026020016040519081016040528093929190818152602001838380828437600081840152601f19601f820116905080830192505050505050509192919290505050611410565b005b3480156108f157600080fd5b506108fa6114a3565b6040518082815260200191505060405180910390f35b34801561091c57600080fd5b506109496004803603602081101561093357600080fd5b81019080803590602001909291905050506114a9565b005b34801561095757600080fd5b506109606116a0565b604051808273ffffffffffffffffffffffffffffffffffffffff1673ffffffffffffffffffffffffffffffffffffffff16815260200191505060405180910390f35b3480156109ae57600080fd5b506109b76116c6565b6040518080602001828103825283818151815260200191508051906020019080838360005b838110156109f75780820151818401526020810190506109dc565b50505050905090810190601f168015610a245780820380516001836020036101000a031916815260200191505b509250505060405180910390f35b348015610a3e57600080fd5b50610a47611764565b005b348015610a5557600080fd5b50610a8260048036036020811015610a6c57600080fd5b8101908080359060200190929190505050611863565b005b348015610a9057600080fd5b50610a996119a0565b6040518082815260200191505060405180910390f35b348015610abb57600080fd5b50610ac46119a6565b6040518080602001828103825283818151815260200191508051906020019080838360005b83811015610b04578082015181840152602081019050610ae9565b50505050905090810190601f168015610b315780820380516001836020036101000a031916815260200191505b509250505060405180910390f35b348015610b4b57600080fd5b50610b54611a44565b6040518080602001828103825283818151815260200191508051906020019080838360005b83811015610b94578082015181840152602081019050610b79565b50505050905090810190601f168015610bc15780820380516001836020036101000a031916815260200191505b509250505060405180910390f35b348015610bdb57600080fd5b50610ce66004803603610120811015610bf357600080fd5b8101908080359060200190640100000000811115610c1057600080fd5b820183602082011115610c2257600080fd5b80359060200191846001830284011164010000000083111715610c4457600080fd5b91908080601f016020809104026020016040519081016040528093929190818152602001838380828437600081840152601f19601f8201169050808301925050505050505091929192908035906020019092919080359060200190929190803590602001909291908035906020019092919080359060200190929190803590602001909291908035906020019092919080359060200190929190505050611ae2565b005b348015610cf457600080fd5b50610cfd611da6565b6040518082815260200191505060405180910390f35b348015610d1f57600080fd5b50610d28611dac565b005b348015610d3657600080fd5b50610d3f611e8e565b6040518082815260200191505060405180910390f35b348015610d6157600080fd5b50610d6a611e94565b005b348015610d7857600080fd5b50610d81611f93565b6040518080602001828103825283818151815260200191508051906020019080838360005b83811015610dc1578082015181840152602081019050610da6565b50505050905090810190601f168015610dee5780820380516001836020036101000a031916815260200191505b509250505060405180910390f35b348015610e0857600080fd5b50610e11612031565b60405180826009811115610e2157fe5b60ff16815260200191505060405180910390f35b348015610e4157600080fd5b50610e4a612044565b6040518082815260200191505060405180910390f35b610e6861204a565b005b348015610e7657600080fd5b50610e7f61214a565b6040518080602001828103825283818151815260200191508051906020019080838360005b83811015610ebf578082015181840152602081019050610ea4565b50505050905090810190601f168015610eec5780820380516001836020036101000a031916815260200191505b509250505060405180910390f35b348015610f0657600080fd5b50610f0f6121e8565b005b348015610f1d57600080fd5b50610f266122e5565b6040518080602001828103825283818151815260200191508051906020019080838360005b83811015610f66578082015181840152602081019050610f4b565b50505050905090810190601f168015610f935780820380516001836020036101000a031916815260200191505b509250505060405180910390f35b348015610fad57600080fd5b50610fb6612383565b6040518082815260200191505060405180910390f35b348015610fd857600080fd5b50610fe1612389565b005b60055481565b60108054600181600116156101000203166002900480601f01602080910402602001604051908101604052809291908181526020018280546001816001161561010002031660029004801561107f5780601f106110545761010080835404028352916020019161107f565b820191906000526020600020905b81548152906001019060200180831161106257829003601f168201915b505050505081565b60045481565b60158054600181600116156101000203166002900480601f0160208091040260200160405190810160405280929190818152602001828054600181600116156101000203166002900480156111235780601f106110f857610100808354040283529160200191611123565b820191906000526020600020905b81548152906001019060200180831161110657829003601f168201915b505050505081565b600a5481565b6000809054906101000a900473ffffffffffffffffffffffffffffffffffffffff1673ffffffffffffffffffffffffffffffffffffffff163373ffffffffffffffffffffffffffffffffffffffff161461118a57600080fd5b600360168190555081601490805190602001906111a8929190612455565b5080601590805190602001906111bf929190612455565b505050565b6000809054906101000a900473ffffffffffffffffffffffffffffffffffffffff1681565b600e5481565b60095481565b60075481565b6000809054906101000a900473ffffffffffffffffffffffffffffffffffffffff1673ffffffffffffffffffffffffffffffffffffffff163373ffffffffffffffffffffffffffffffffffffffff161461125457600080fd5b60026016819055508160129080519060200190611272929190612455565b508060139080519060200190611289929190612455565b505050565b6000809054906101000a900473ffffffffffffffffffffffffffffffffffffffff1673ffffffffffffffffffffffffffffffffffffffff163373ffffffffffffffffffffffffffffffffffffffff16146112e757600080fd5b6002601654146112f657600080fd5b6004600360006101000a81548160ff0219169083600981111561131557fe5b021790555080600554116113735760405180606001604052806023815260200161258660239139600c9080519060200190611351929190612455565b506000600f54141561136e576002600d819055506001600f819055505b61140d565b80600954116113b85760405180606001604052806036815260200161263660369139600c90805190602001906113aa929190612455565b506001600d8190555061140c565b6040518060600160405280603281526020016125ce60329139600c90805190602001906113e6929190612455565b506005600360006101000a81548160ff0219169083600981111561140657fe5b02179055505b5b50565b6000809054906101000a900473ffffffffffffffffffffffffffffffffffffffff1673ffffffffffffffffffffffffffffffffffffffff163373ffffffffffffffffffffffffffffffffffffffff161461146957600080fd5b60016016819055508160109080519060200190611487929190612455565b50806011908051906020019061149e929190612455565b505050565b600d5481565b6000809054906101000a900473ffffffffffffffffffffffffffffffffffffffff1673ffffffffffffffffffffffffffffffffffffffff163373ffffffffffffffffffffffffffffffffffffffff161461150257600080fd5b60016016541461151157600080fd5b60038060009054906101000a900460ff16600981111561152d57fe5b81600981111561153957fe5b1461154357600080fd5b6004600360006101000a81548160ff0219169083600981111561156257fe5b021790555081600554116115b45760405180606001604052806023815260200161258660239139600c908051906020019061159e929190612455565b506003600d819055506001600f8190555061169c565b81600954116115f95760405180606001604052806036815260200161260060369139600c90805190602001906115eb929190612455565b506002600d8190555061169b565b816008541161163e5760405180606001604052806035815260200161252660359139600c9080519060200190611630929190612455565b506001600d8190555061169a565b60405180606001604052806031815260200161266c60319139600c908051906020019061166c929190612455565b506005600360006101000a81548160ff0219169083600981111561168c57fe5b02179055506000600d819055505b5b5b5050565b600160009054906101000a900473ffffffffffffffffffffffffffffffffffffffff1681565b60118054600181600116156101000203166002900480601f01602080910402602001604051908101604052809291908181526020018280546001816001161561010002031660029004801561175c5780601f106117315761010080835404028352916020019161175c565b820191906000526020600020905b81548152906001019060200180831161173f57829003601f168201915b505050505081565b6000809054906101000a900473ffffffffffffffffffffffffffffffffffffffff1673ffffffffffffffffffffffffffffffffffffffff163373ffffffffffffffffffffffffffffffffffffffff16146117bd57600080fd5b6008600360009054906101000a900460ff1660098111156117da57fe5b8160098111156117e657fe5b146117f057600080fd5b6009600360006101000a81548160ff0219169083600981111561180f57fe5b02179055506040518060400160405280601f81526020017f5061796d656e742072656365697665642e436f6e747261637420646f6e652e00815250600c908051906020019061185f929190612455565b5050565b6000809054906101000a900473ffffffffffffffffffffffffffffffffffffffff1673ffffffffffffffffffffffffffffffffffffffff163373ffffffffffffffffffffffffffffffffffffffff16146118bc57600080fd5b6003601654146118cb57600080fd5b6004600360006101000a81548160ff021916908360098111156118ea57fe5b02179055508060055410156119495760405180606001604052806023815260200161258660239139600c9080519060200190611927929190612455565b506000600f541415611944576001600d819055506001600f819055505b61199d565b6040518060600160405280602b81526020016124fb602b9139600c9080519060200190611977929190612455565b506005600360006101000a81548160ff0219169083600981111561199757fe5b02179055505b50565b600f5481565b60128054600181600116156101000203166002900480601f016020809104026020016040519081016040528092919081815260200182805460018160011615610100020316600290048015611a3c5780601f10611a1157610100808354040283529160200191611a3c565b820191906000526020600020905b815481529060010190602001808311611a1f57829003601f168201915b505050505081565b60138054600181600116156101000203166002900480601f016020809104026020016040519081016040528092919081815260200182805460018160011615610100020316600290048015611ada5780601f10611aaf57610100808354040283529160200191611ada565b820191906000526020600020905b815481529060010190602001808311611abd57829003601f168201915b505050505081565b6000809054906101000a900473ffffffffffffffffffffffffffffffffffffffff1673ffffffffffffffffffffffffffffffffffffffff163373ffffffffffffffffffffffffffffffffffffffff1614611b3b57600080fd5b731d46f71333b857035c325221312aca03d382d379600160006101000a81548173ffffffffffffffffffffffffffffffffffffffff021916908373ffffffffffffffffffffffffffffffffffffffff1602179055508860029080519060200190611ba6929190612455565b5087600481905550866005819055508560068190555084600781905550836008819055508260098190555081600a8190555080600b819055506001600360006101000a81548160ff02191690836009811115611bfe57fe5b02179055506040518060400160405280601481526020017f50726f647563742077617320637265617465642e000000000000000000000000815250600c9080519060200190611c4e929190612455565b507fb7cbd6ba1bee420f48863ad1dc7b34b274c0718cebd8a599cd7d85767b76e278600160009054906101000a900473ffffffffffffffffffffffffffffffffffffffff166002600454600554600654600754600854600954604051808973ffffffffffffffffffffffffffffffffffffffff1673ffffffffffffffffffffffffffffffffffffffff16815260200180602001888152602001878152602001868152602001858152602001848152602001838152602001828103825289818154600181600116156101000203166002900481526020019150805460018160011615610100020316600290048015611d865780601f10611d5b57610100808354040283529160200191611d86565b820191906000526020600020905b815481529060010190602001808311611d6957829003601f168201915b5050995050505050505050505060405180910390a1505050505050505050565b60065481565b6000809054906101000a900473ffffffffffffffffffffffffffffffffffffffff1673ffffffffffffffffffffffffffffffffffffffff163373ffffffffffffffffffffffffffffffffffffffff1614611e0557600080fd5b6001600360009054906101000a900460ff166009811115611e2257fe5b816009811115611e2e57fe5b14611e3857600080fd5b6002600360006101000a81548160ff02191690836009811115611e5757fe5b02179055506040518060600160405280602581526020016125a960259139600c9080519060200190611e8a929190612455565b5050565b60165481565b600160009054906101000a900473ffffffffffffffffffffffffffffffffffffffff1673ffffffffffffffffffffffffffffffffffffffff163373ffffffffffffffffffffffffffffffffffffffff1614611eee57600080fd5b6002600360009054906101000a900460ff166009811115611f0b57fe5b816009811115611f1757fe5b14611f2157600080fd5b60038060006101000a81548160ff02191690836009811115611f3f57fe5b02179055506040518060400160405280601c81526020017f5065726d697373696f6e206772616e7465642062792062757965722e00000000815250600c9080519060200190611f8f929190612455565b5050565b60028054600181600116156101000203166002900480601f0160208091040260200160405190810160405280929190818152602001828054600181600116156101000203166002900480156120295780601f10611ffe57610100808354040283529160200191612029565b820191906000526020600020905b81548152906001019060200180831161200c57829003601f168201915b505050505081565b600360009054906101000a900460ff1681565b60085481565b600160009054906101000a900473ffffffffffffffffffffffffffffffffffffffff1673ffffffffffffffffffffffffffffffffffffffff163373ffffffffffffffffffffffffffffffffffffffff16146120a457600080fd5b6007600360009054906101000a900460ff1660098111156120c157fe5b8160098111156120cd57fe5b146120d757600080fd5b6008600360006101000a81548160ff021916908360098111156120f657fe5b02179055506040518060400160405280600d81526020017f5061796d656e7420646f6e652e00000000000000000000000000000000000000815250600c9080519060200190612146929190612455565b5050565b600c8054600181600116156101000203166002900480601f0160208091040260200160405190810160405280929190818152602001828054600181600116156101000203166002900480156121e05780601f106121b5576101008083540402835291602001916121e0565b820191906000526020600020905b8154815290600101906020018083116121c357829003601f168201915b505050505081565b6000809054906101000a900473ffffffffffffffffffffffffffffffffffffffff1673ffffffffffffffffffffffffffffffffffffffff163373ffffffffffffffffffffffffffffffffffffffff161461224157600080fd5b6006600360009054906101000a900460ff16600981111561225e57fe5b81600981111561226a57fe5b1461227457600080fd5b600a600654600d54028161228457fe5b0460065403600e819055506007600360006101000a81548160ff021916908360098111156122ae57fe5b02179055506040518060600160405280602b815260200161255b602b9139600c90805190602001906122e1929190612455565b5050565b60148054600181600116156101000203166002900480601f01602080910402602001604051908101604052809291908181526020018280546001816001161561010002031660029004801561237b5780601f106123505761010080835404028352916020019161237b565b820191906000526020600020905b81548152906001019060200180831161235e57829003601f168201915b505050505081565b600b5481565b600160009054906101000a900473ffffffffffffffffffffffffffffffffffffffff1673ffffffffffffffffffffffffffffffffffffffff163373ffffffffffffffffffffffffffffffffffffffff16146123e357600080fd5b6006600360006101000a81548160ff0219169083600981111561240257fe5b02179055506040518060400160405280601281526020017f536869706d656e742072656365697665642e0000000000000000000000000000815250600c9080519060200190612452929190612455565b50565b828054600181600116156101000203166002900490600052602060002090601f016020900481019282601f1061249657805160ff19168380011785556124c4565b828001600101855582156124c4579182015b828111156124c35782518255916020019190600101906124a8565b5b5090506124d191906124d5565b5090565b6124f791905b808211156124f35760008160009055506001016124db565b5090565b9056fe547275636b20726561636865642074686520746869726420636865636b20706f696e74206f6e2074696d65547275636b207761732064656c6179656420746f20726561636820666972737420636865636b20706f696e7420627920312064617942696c6c20776173207375626d69747465642e506c65617365206d616b6520746865207061796d656e742e536869706d656e74207761732064656c6179656420746f2072656163682062757965725065726d697373696f6e207761732072657175657374656420627920737570706c6965722e547275636b207265616368656420746865207365636f6e6420636865636b20706f696e742077697468206e6f2064656c6179547275636b207761732064656c6179656420746f20726561636820666972737420636865636b20706f696e7420627920322064617973547275636b207761732064656c6179656420746f207265616368207365636f6e6420636865636b20706f696e74206279203120646179547275636b20726561636865642074686520666972737420636865636b20706f696e742077697468206e6f2064656c6179a265627a7a7231582055b9be082db7935a995ed0cb70c2e58d5c517060301c8247ccb099f586be242964736f6c63430005100032",
  "source": "pragma solidity ^0.5.0;\r\n\r\ncontract Product{\r\n\taddress public supplier;\r\n\taddress public buyer;\r\n\tstring public product = \"\";\r\n\tenum ProductState{started,created,pending,permissioned,delayed,ontime,received,paymentpending,paid,ended}\r\n\tProductState public state = ProductState.started;\r\n\tuint public quantity;\r\n\tuint public time;\r\n\tuint public price;\r\n\tuint public time1;\r\n\tuint public time2;\r\n\tuint public time3;\r\n\tuint public hour;\r\n\tuint public min;\r\n\tstring public message = \"Contract Started\";\r\n\tuint public delay;\r\n\tuint public bill = 0;\r\n\tuint public flag = 0;\r\n\tstring public lat1 = \"0\";\r\n\tstring public long1 = \"0\";\r\n\tstring public lat2 = \"0\";\r\n\tstring public long2 = \"0\";\r\n\tstring public lat3 = \"0\";\r\n\tstring public long3 = \"0\";\r\n\tuint public k=0;\r\n\r\n\tconstructor() public{\r\n\t\tsupplier = msg.sender;\r\n\t}\r\n\t\r\n\tmodifier isSupplier() {\r\n    if (msg.sender != supplier) {\r\n      revert();\r\n    }\r\n    _;\r\n  \t}\r\n\r\n  \tmodifier isState(ProductState a) {\r\n\t\tif (a != state) {\r\n\t\trevert();\r\n\t\t}\r\n\t\t_;\r\n\t}\r\n\r\n\tmodifier isBuyer() {\r\n\t\tif (msg.sender != buyer) {\r\n\t\trevert();\r\n\t\t}\r\n\t\t_;\r\n\t}\r\n\r\n\tmodifier is_k1() {\r\n\t\tif (k != 1) {\r\n\t\trevert();\r\n\t\t}\r\n\t\t_;\r\n\t}\r\n\r\n\tmodifier is_k2() {\r\n\t\tif (k != 2) {\r\n\t\trevert();\r\n\t\t}\r\n\t\t_;\r\n\t}\r\n\r\n\tmodifier is_k3() {\r\n\t\tif (k != 3) {\r\n\t\trevert();\r\n\t\t}\r\n\t\t_;\r\n\t}\r\n\r\n\tevent ProductCreated(address buyer,string product,uint quantity,uint time,uint price,uint time1,uint time2,uint time3);\r\n  \t\r\n  \tfunction createProduct(string memory  b,uint c,uint d,uint e,uint f,uint g,uint h,uint i,uint j) public \r\n\t\tisSupplier() {\r\n\t\t\tbuyer = 0x1D46f71333B857035c325221312aca03d382D379;\r\n\t\t\tproduct = b;\r\n\t\t\tquantity = c;\r\n\t\t\ttime = d;\r\n\t\t\tprice = e;\r\n\t\t\ttime1 = f;\r\n\t\t\ttime2 = g;\r\n\t\t\ttime3 = h;\r\n\t\t\thour = i;\r\n\t\t\tmin = j;\r\n\t\t\tstate = ProductState.created;\r\n\t\t\tmessage = \"Product was created.\";\r\n\t\t\temit ProductCreated(buyer,product,quantity,time,price,time1,time2,time3);\r\n\t\t}\r\n\r\n\tfunction askPermission() public\r\n\t\tisSupplier() isState(ProductState.created) {\r\n\t\t\tstate = ProductState.pending;\r\n\t\t\tmessage = \"Permission was requested by supplier.\";\r\n\t\t}\r\n\r\n\tfunction grantPermission() public\r\n\t\tisBuyer() isState(ProductState.pending) {\r\n\t\t\tstate = ProductState.permissioned;\r\n\t\t\tmessage = \"Permission granted by buyer.\";\r\n\t\t}\r\n\r\n\tfunction IoT_1(uint t1) public\r\n\t\tisSupplier() is_k1() isState(ProductState.permissioned) {\r\n\t\t\t\r\n\t\t\tstate = ProductState.delayed;\r\n\t\t\tif(time <= t1)\r\n\t\t\t{\r\n\t\t\t\tmessage = \"Shipment was delayed to reach buyer\";\r\n\t\t\t\tdelay =3;\r\n\t\t\t\tflag = 1;\r\n\t\t\t}\r\n\t\t\telse if(time3 <= t1)\r\n\t\t\t{\r\n\t\t\t\tmessage = \"Truck was delayed to reach first check point by 2 days\";\r\n\t\t\t\tdelay = 2; \r\n\t\t\t}\r\n\t\t\telse if(time2 <= t1)\r\n\t\t\t{\r\n\t\t\t\tmessage = \"Truck was delayed to reach first check point by 1 day\";\r\n\t\t\t\tdelay = 1; \r\n\t\t\t}\r\n\t\t\telse\r\n\t\t\t{\r\n\t\t\t\tmessage = \"Truck reached the first check point with no delay\";\r\n\t\t\t\tstate = ProductState.ontime;\r\n\t\t\t\tdelay = 0;\r\n\t\t\t}\r\n\t\t}\r\n\r\n\tfunction loc_1(string memory a,string memory b) public\r\n\t\tisSupplier() {\r\n\t\tk=1;\r\n\t\tlat1 = a;\r\n\t\tlong1 = b;\r\n\t}\r\n\r\n\tfunction IoT_2(uint t2) public\r\n\t\tisSupplier() is_k2() {\r\n\t\t\tstate = ProductState.delayed;\r\n\t\t\tif(time <= t2)\r\n\t\t\t{\r\n\t\t\t\tmessage = \"Shipment was delayed to reach buyer\";\r\n\t\t\t\tif(flag == 0)\r\n\t\t\t\t{\r\n\t\t\t\t\tdelay =2;\r\n\t\t\t\t\tflag = 1;\r\n\t\t\t\t}\r\n\r\n\t\t\t}\r\n\t\t\telse if(time3 <= t2)\r\n\t\t\t{\r\n\t\t\t\tmessage = \"Truck was delayed to reach second check point by 1 day\";\r\n\t\t\t\tdelay = 1;\r\n\t\t\t}\r\n\t\t\telse\r\n\t\t\t{\r\n\t\t\t\tmessage = \"Truck reached the second check point with no delay\";\r\n\t\t\t\tstate = ProductState.ontime;\r\n\t\t\t}\r\n\t\t}\r\n\r\n\tfunction loc_2(string memory a,string memory b) public\r\n\t\tisSupplier() {\r\n\t\tk=2;\r\n\t\tlat2 = a;\r\n\t\tlong2 = b;\r\n\t}\r\n\r\n\tfunction IoT_3(uint t3) public\r\n\t\tisSupplier() is_k3() {\r\n\t\t\t\r\n\t\t\tstate = ProductState.delayed;\r\n\t\t\tif(time < t3)\r\n\t\t\t{\r\n\t\t\t\tmessage = \"Shipment was delayed to reach buyer\";\r\n\t\t\t\tif(flag == 0)\r\n\t\t\t\t{\r\n\t\t\t\t\tdelay = 1;\r\n\t\t\t\t\tflag = 1;\r\n\t\t\t\t}\r\n\t\t\t}\r\n\t\t\telse\r\n\t\t\t{\r\n\t\t\t\tmessage = \"Truck reached the third check point on time\";\r\n\t\t\t\tstate = ProductState.ontime;\r\n\t\t\t}\r\n\t\t}\r\n\r\n\tfunction loc_3(string memory a,string memory b) public\r\n\t\tisSupplier() {\r\n\t\tk=3;\r\n\t\tlat3 = a;\r\n\t\tlong3 = b;\r\n\t}\r\n\r\n\tfunction acknowledgeShipment() public\r\n\t\tisBuyer() {\r\n\t\t\tstate = ProductState.received;\r\n\t\t\tmessage = \"Shipment received.\";\r\n\t\t}\r\n\t\t\t\t\r\n\tfunction submitBill() public\r\n\t\tisSupplier() isState(ProductState.received) {\r\n\t\t\tbill = price - ((delay*price)/10);\r\n\t\t\tstate = ProductState.paymentpending;\r\n\t\t\tmessage = \"Bill was submitted.Please make the payment.\";\r\n\t\t}\r\n\r\n\tfunction makePayment() public payable\r\n\t\tisBuyer() isState(ProductState.paymentpending) {\r\n\t\t\tstate = ProductState.paid;\r\n\t\t\tmessage = \"Payment done.\";\r\n\t\t}\r\n\r\n\tfunction acknowledgePayment() public\r\n\t\tisSupplier() isState(ProductState.paid) {\r\n\t\t\tstate = ProductState.ended;\r\n\t\t\tmessage = \"Payment received.Contract done.\";\r\n\t\t}\r\n}",
  "sourcePath": "C:/Users/sree/product/contracts/Product.sol",
  "compiler": {
    "name": "solc",
    "version": "0.5.16+commit.9c3226ce.Emscripten.clang"
  },
  "schemaVersion": "3.3.1",
  "updatedAt": "2021-04-08T10:41:55.401Z",
  "networkType": "ethereum",
  "devdoc": {
    "methods": {}
  },
  "userdoc": {
    "methods": {}
  }
}